:100000000C9435040C947C040C947C040C947C04B7
:100010000C947C040C947C040C947C040C947C0460
:100020000C947C040C947C040C94DE2C0C94B02D69
:100030000C947C040C947C040C947C040C947C0440
:100040000C947C040C947C040C947C040C947C0430
:100050000C947C040C948F270C947C040C947C04EA
:100060000C947C040C947C040C947C040C947C0410
:100070000C947C040C947C040C947C040C947C0400
:100080000C9436090C947C040C947C040C947C0431
:100090000C947C040C947C040C947C040C947C04E0
:1000A0000C947C040C947C040C947C04EE09D00920
:1000B000D309D609D909DC09DF09E209E509E8090C
:1000C000EB095F0A6C0A710A760A7B0A800A8A0ABF
:1000D000940A9E0AA60AB00AB80AC20ACA0AD40A30
:1000E000DD0A080B0C0B130B190B1F0B2A0B240B2F
:1000F000300B330B360B390B3C0B440B4C0B540BB6
:100100005A0B620B680B700B760B800B8B0BF20C8F
:10011000F80CFE0C030D080D0D0D120D170D1C0D26
:10012000210D260D2B0D300D360DA515A815C81562
:10013000D415DC15E715EA15EA15EA153216351659
:10014000EF15F215F71504161116141618162516C4
:100150002E1D2E1D601D601DAD1DE11EE11EE11E48
:10016000CB1D601E711E711ED11EE11EE11EDA1E26
:10017000631F631F751F751F6C1F751F751F751F0C
:10018000631F631F711F751F751F711F1D2E442E66
:100190003C2F442E3C2F902EB32E3C2F0A2F192F8C
:1001A0000F0E0D0C0B0A0908101112131415060579
:1001B000040302010018191A1B1C1D1E072D2C2BED
:1001C0002A2928303132333417162E2423222120B5
:1001D00038393A3BFF35361F2F2726FFFF25FFFF13
:1001E000FF3C3D3E3F374681508B599D60B565D001
:1001F00069EE6DFF80F740FF46FF4BFF50FF55FF54
:1002000059FF5DFF60FF3AFF35FF30FF2BFF27FFEF
:1002100022FF20FFFFE93A81308B279D20B51BD0BC
:1002200017EE13FFEDFFB783AD8FA5A39FBC9AD840
:10023000BCFFAAFFA5FF8009802E80528077809B9B
:1002400080C093FFA1FF001B00400065008900AE45
:10025000E4C9EBFFE0FFC380CE88D798DEAFD0FFC4
:10026000D5FFD9FFDEE15BFF54FF4AFF3CFF30FFC3
:1002700027FF20FF1BFF00FFECFFEAFFDEFFD5FF9B
:10028000C5FFB4FFA7FF98FF93FF80FF65FF6810CD
:10029000581048103810281018100410062070004C
:1002A000600050004000300020001000000080007E
:1002B0009000A000B000C000D000E000D620781070
:1002C00088109810A810B810C810DC10E030643006
:1002D000543044303430243066402A4016406C207C
:1002E0005C204C203C202C201C200A3002407C202A
:1002F0008C209C20AC20BC20B430CA30E04074304C
:1003000084309430A430A040B040C040D0401B03A3
:10031000400364038903AD03D103F204FF08FF2007
:10032000FF40F140D440AD40894064403F401C4014
:1003300000400020000829001E001F0020002100AE
:100340002200230024002500260027002D002E0077
:1003500031002B0014001A000800150017001C00C3
:1003600018000C00120013002F0030002A00390082
:1003700004001600070009000A000B000D000E0023
:100380000F003300340028004C00E1001D001B006A
:1003900006001900050011001000360037000000AB
:1003A000380052000251E000E300E20000000000CB
:1003B0002C00000000000000E600E40050005100A6
:1003C0004F0029003A003B003C003D003E003F004A
:1003D000400041004200430044004500460039000F
:1003E00001005200010001000100010001000100B4
:1003F00001000100AA00A900A8000100500051005E
:100400004F00010001000100010001000100010096
:10041000010001004600010001000100010001008F
:10042000010001000100010001000000E5004B0097
:1004300001000100010001000000000001000000B7
:1004400000000000010001004A004E004D000100C4
:100450000100010001000100010001000100010094
:100460000100010001000100010001000100010084
:100470000100010001000100010001000100010074
:100480000100010001000100010001000100010064
:100490000100010001000100010001000100010054
:1004A0000100010001000100010001000100010044
:1004B0000100010001000000010001000100010035
:1004C0000100010000000000010000000000000029
:1004D0000100010001000100010001000100010014
:1004E0000100010001000100010001000100010004
:1004F00001000100010001000100010001000100F4
:1005000001000100010001000100010001000100E3
:1005100001000100010001000100010001000100D3
:1005200001000100010001000100010001000100C3
:1005300001000100010001000100010001000100B3
:1005400001000000010001000100010001000100A4
:100550000000000001000000000000000100010098
:1005600001000100010000000000000000002A2B33
:100570002800000000000000000000000000000053
:100580000029000000002C1E3420212224342627BC
:10059000252E362D3738271E1F20212223242526DD
:1005A0003333362E37381F0405060708090A0B0CAB
:1005B0000D0E0F101112131415161718191A1B1CF3
:1005C0001D2F3130232D350405060708090A0B0CB1
:1005D0000D0E0F101112131415161718191A1B1CD3
:1005E0001D2F3130354C00000000000000000000DD
:1005F000000000000000000000007E0F00D4FFFF9C
:10060000FFC70000007800010101010101010101A3
:1006100002020202020202020203030303030303B3
:100620000304040404040404050505050506060680
:100630000606070707070708080808090909090A3D
:100640000A0A0B0B0B0C0C0C0D0D0D0E0E0E0F0FE2
:100650000F10101111111212131314141515161670
:100660001717181819191A1A1B1B1C1D1D1E1E1FDF
:100670002020212222232424252626272829292A2E
:100680002B2C2D2D2E2F3031323233343536373856
:10069000393A3B3C3D3E3F40414243444546474852
:1006A000494A4C4D4E4F50515354555658595A5B28
:1006B0005D5E5F616264656668696B6C6D6F7072C8
:1006C000737577787A7B7D7E8082838587888A8C34
:1006D0008E8F91939596989A9C9EA0A2A3A5A7A968
:1006E000ABADAFB1B3B5B7BABCBEC0C2C4C6C9CB5F
:1006F000CDCFD1D4D6D8DBDDDFE2E4E7E9EBEEF015
:10070000F3F5F8FAFDFF0403300000000E03440087
:10071000610077006E003600300000000C035800C6
:1007200065006C00750073000000040309040902F1
:100730005B00030100A0FA090400000103010100AD
:100740000921110100012240000705810308000A68
:100750000904010002030000000921110100012227
:100760002200070582032000010705030320000182
:100770000904020001030000000921110100012207
:100780006D000705840320000A120110010000001B
:1007900008455860000100010203010660FF09617D
:1007A000A1010962150026FF009520750881020944
:1007B00063150026FF00952075089102C005010908
:1007C00080A101850319012AB700150126B70095FC
:1007D0000175108100C0050C0901A10185041901F2
:1007E0002AA002150126A002950175108100C005FE
:1007F000010906A1018505050719E029E71500256E
:10080000019508750181020507190029EF150025DA
:100810000195F075018102050819012905950575F5
:10082000019102950175039101C005010906A1011D
:10083000050719E029E715002501950875018102D2
:100840009501750881010507190029FF150026FF8C
:10085000009506750881000508190129059505759B
:10086000019102950175039101C011241FBECFEFC4
:10087000DAE0DEBFCDBF04B603FE27C08091A40539
:100880009091A505A091A605B091A7058730904B42
:10089000A740B04BD1F41092A4051092A505109278
:1008A000A6051092A70514BE84B7877F84BF0FB634
:1008B000F894A89580916000886180936000109200
:1008C00060000FBEE0E0F8E3099512E0A0E0B1E0BF
:1008D000E0E7F1E602C005900D92A63BB107D9F71B
:1008E00025E0A6EBB2E001C01D92A43AB207E1F701
:1008F0000E9494290C94B6300C9400000E94E814D5
:10090000882319F00E94A00B02C00E94A80B0E942D
:10091000B00B0E947D050C9490050C94BC130E94B2
:100920001F050C94BA130F931F93CF93DF93EC0121
:100930008B010E94D40CB801CE01DF91CF911F91A1
:100940000F910C94EF0FCF93C82F0E9499058C2F15
:10095000CF910C94561181E00C94960580E00C9494
:100960009605FC019C012F5F3F4F9081983039F034
:10097000993041F0973041F4C9010C94510AC901F2
:100980000C94F30A0C94A80B8FEF80830895DB017D
:10099000E82FF0E0EE0FFF1FE257FD4F94919C937C
:1009A0003196E4911196EC9311978533F1F028F488
:1009B000853141F0853261F008958633B1F08F338F
:1009C00071F008958091050180FD15C0985F12C0F7
:1009D0008091050183FF0FC080E78C93089580917B
:1009E000050183FF08C0985005C08091050182FF72
:1009F00002C09A5F9C930895E82FF0E0EE0FFF1F6E
:100A0000EA51FE4F8491DB018C933196E49111966B
:100A1000EC930895853020F08FEFDA018C930895E0
:100A20006E30D0F7E62FF0E0BEE08B9FE00DF11DB9
:100A30001124E056FE4FE491DA01EC93089560E052
:100A400084E70E94780F61E086E70E94780F60E0FB
:100A500084E70E94900F61E086E70C94900F803449
:100A6000910514F40C944E0E80549109FC01EE0F84
:100A7000FF1F8E0F9F1FFC01E754FC4F61834083D3
:100A8000228364E170E089EB93E00C94EA0F1F93FA
:100A9000CF93DF93182FD62FC42F0E947A0EE9EB45
:100AA000F3E01183D083C283339683E0E53FF807F8
:100AB000C1F764E170E089EB93E0DF91CF911F9182
:100AC0000C94EA0FCF93DF931F92CDB7DEB7AE0140
:100AD0004F5F5F4F0E940A05E981F0E0EB50FC4F49
:100AE00010821092B8021092B9021092BA021092BB
:100AF000BB020F90DF91CF9108958091B7028111D1
:100B00000EC081E08093B7028DE0809391009FB783
:100B1000F89423E020939900809398009FBF089554
:100B2000E1E7F0E080818260808308958093C102D4
:100B300008958093C00208958091BC029091BD02F7
:100B4000A091BE02B091BF0280739927AA27BB274C
:100B500024E0B695A795979587952A95D1F7823089
:100B60009105A105B10571F083309105A105B1058D
:100B700069F040E00197A105B10511F060E008C0FF
:100B80006FEF02C04FEF60E080E003C04FEF6FEF08
:100B90008FEF0C94470540E060E080E00C9447053F
:100BA000E5E0F1E06581768182810E94420D482F67
:100BB000872F0C9447055F926F927F928F929F923E
:100BC000AF92BF92CF92DF92EF92FF920F931F935B
:100BD000CF93DF931F92CDB7DEB760910A0170917A
:100BE0000B01809107010E94420DD62EC72E982E30
:100BF00060910C0170910D01809107010E94420DDE
:100C0000862E772E682E85E0E82E81E0F82E512C76
:100C1000AA24A394B12C00E010E0AE014F5F5F4F17
:100C2000602F852D0E940A0589818435C0F4F70163
:100C300025893689A501002E02C0440F551F0A944C
:100C4000E2F72423352390E0232B21F4292D4D2D89
:100C50006C2D03C0262D482D672D0E942F050F5F98
:100C60001F4F0E301105C9F65394F2E0EF0EF11C40
:100C700085E05812D0CF00E410E0C80180549109FB
:100C80008730910518F00C97049720F4292D4D2DED
:100C90006C2D03C0262D482D672DC8010E942F05FD
:100CA0000F5F1F4F0435110541F70F90DF91CF9172
:100CB0001F910F91FF90EF90DF90CF90BF90AF907A
:100CC0009F908F907F906F905F900895DF92EF924A
:100CD000FF920F931F93CF93DF9300D0CDB7DEB772
:100CE00080910C0190E020910A01821B91098038CB
:100CF000910514F09A9505C081382FEF92070CF4F6
:100D0000939597FD03969595879595958795182FBB
:100D100080910D0190E020910B01821B910997FDBC
:100D200003969595879595958795082FD0900701FF
:100D3000E12CF12CBE016F5F7F4F8E2D0E94C70406
:100D40008A8182958F7060910A01819F600D1124C4
:100D500070910B01809F700D11248D2D0E94420D0A
:100D6000462F282F672FC7010E942F058FEFE81A03
:100D7000F80A24E5E216F104E9F60F900F90DF91EE
:100D8000CF911F910F91FF90EF90DF900895AF9258
:100D9000BF92CF92DF92EF92FF920F931F93CF9368
:100DA000DF93082F10910A0180910C0190E0811BC4
:100DB000910997FD03969595879595958795D82FD9
:100DC000B0900B0180910D0190E08B19910997FD76
:100DD00003969595879595958795C82F0E94F12F35
:100DE00064E570E00E94842FE12CF12C6C01DD247D
:100DF000011103C0EC14FD04C9F40E94F12F8370AB
:100E0000A12E8D9FA00C11240E94F12F83707B2DA9
:100E10008C9F700D11246A2D809107010E94420D54
:100E2000462F282F672FC7010E942F058FEFE81A42
:100E3000F80A84E5E816F104D9F6DF91CF911F9105
:100E40000F91FF90EF90DF90CF90BF90AF900895FB
:100E5000DF92EF92FF920F931F93CF93DF938091D6
:100E6000BC029091BD02A091BE02B091BF02009061
:100E7000090104C0880F991FAA1FBB1F0A94D2F74B
:100E8000D82EC5EFD3E000E010E08FE3E82EF12C80
:100E9000899124E0829FC00111248034910524F4BB
:100EA000B701681B790B02C060E070E06D0D7FEF49
:100EB000809107010E94420D462F282F672FC801FD
:100EC0000E942F050F5F1F4F0435110509F7DF91B1
:100ED000CF911F910F91FF90EF90DF9008958F9227
:100EE0009F92AF92BF92CF92DF92EF92FF920F93B9
:100EF0001F93CF93DF9300D0CDB7DEB78091BC02B4
:100F00009091BD02A091BE02B091BF020090090174
:100F100004C0880F991FAA1FBB1F0A94D2F7B82ECE
:100F2000A090070185EFE82E83E0F82E00E010E0A6
:100F30009FE3C92ED12CF70181917F01F4E08F9FAF
:100F4000C00111248034910524F44601881A990ABD
:100F500002C0812C912CBE016F5F7F4F802F0E94B9
:100F6000C70469816B0D680D7FEF8A2D0E94420DC9
:100F7000462F282F672FC8010E942F050F5F1F4F94
:100F800004351105C1F60F900F90DF91CF911F919D
:100F90000F91FF90EF90DF90CF90BF90AF909F9018
:100FA0008F9008958F929F92AF92BF92CF92DF92CF
:100FB000EF92FF920F931F93CF93DF9300D0CDB7A3
:100FC000DEB78091BC029091BD02A091BE02B091AB
:100FD000BF020090090104C0880F991FAA1FBB1F00
:100FE0000A94D2F7B82EA090070185EFE82E83E08F
:100FF000F82E00E010E09FE3C92ED12CF70181917B
:101000007F01F4E08F9FC00111248034910524F406
:101010004601881A990A02C0812C912CBE016F5F8B
:101020007F4F802F0E94C7046A816B0D680D7FEF90
:101030008A2D0E94420D462F282F672FC8010E943B
:101040002F050F5F1F4F04351105C1F60F900F904C
:10105000DF91CF911F910F91FF90EF90DF90CF9094
:10106000BF90AF909F908F900895EF92FF920F9353
:101070001F93CF93DF93F82E0E94F12F64E570E069
:101080000E94842FC0E0D0E08C011127F11003C032
:101090000C171D0789F40E94F12FE82E0E94F12FF2
:1010A0006E2D782F809107010E94420D462F282F28
:1010B000672FCE010E942F052196C435D10531F747
:1010C000DF91CF911F910F91FF90EF900895EF92D4
:1010D000FF920F931F93CF93DF9300D0CDB7DEB76E
:1010E0008091BC029091BD02A091BE02B091BF025E
:1010F0000090090104C0880F991FAA1FBB1F0A9402
:10110000D2F7F82EE090070100E010E0BE016F5F1B
:101110007F4F802F0E94FC0469816F0D7A818E2D94
:101120000E94420D462F282F672FC8010E942F05CD
:101130000F5F1F4F0435110549F70F900F90DF9196
:10114000CF911F910F91FF90EF900895EF92FF9232
:101150000F931F93CF93DF9300D0CDB7DEB780916D
:10116000BC029091BD02A091BE02B091BF0200905E
:10117000090104C0880F991FAA1FBB1F0A94D2F748
:10118000F82EE090070100E010E0BE016F5F7F4F96
:10119000802F0E94FC0469816F0D67FD6095669544
:1011A000669580910A01680F7A81769571588E2D27
:1011B0000E94420D462F282F672FC8010E942F053D
:1011C0000F5F1F4F0435110501F70F900F90DF914E
:1011D000CF911F910F91FF90EF900895CF93C82F5B
:1011E000809107010E94420DCE3F29F4482F872F9E
:1011F000CF910C944705282F462F672F8C2F90E016
:10120000CF910C942F05809110018F3F51F0909158
:10121000C00291FF06C060910E0170910F010E9403
:10122000EE088091680383FF09C0809119018F3F08
:10123000E1F0609117017091180115C082FF09C09B
:10124000809116018F3F89F0609114017091150112
:101250000AC081FF0AC0809113018F3F31F0609175
:101260001101709112010C94EE0808951F920F92D3
:101270000FB60F9211240F931F932F933F934F9309
:101280005F936F937F938F939F93AF93BF93CF930E
:10129000EF93FF938091B602843120F48F5F8093A7
:1012A000B602A2C08091BC029091BD02A091BE0284
:1012B000B091BF020196A11DB11D8093BC02909315
:1012C000BD02A093BE02B093BF028091B80290917C
:1012D000B902A091BA02B091BB028F3F2FEF9207E3
:1012E000A207B20759F00196A11DB11D8093B80263
:1012F0009093B902A093BA02B093BB02E5EFF3E07A
:1013000080818F3F11F08F5F8083319684E0E934D4
:10131000F807B1F7E0910801EF3F19F40E949C052E
:1013200063C08091C102882321F08091050185FD71
:101330001EC0809106018823E1F020EB34E0829FFB
:10134000A001839F500D1124052E000C660B770B16
:1013500081E00091B8021091B9022091BA02309157
:10136000BB02401751076207730720F002C081E0FB
:1013700001C080E0C82FC17080FDE0E081E0909165
:1013800004019E1301C080E0E09304014E2F50E061
:101390004B30510518F5FA01EA5AFF4F0C94982F7B
:1013A0000E94D0051DC00E94DB051AC00E9466067F
:1013B00017C00E94C70614C00E94280711C00E94CF
:1013C0006F070EC00E94D2070BC00E94350808C0EC
:1013D0000E94670805C00E94A60802C00E94CB05B3
:1013E000C11102C00E940309FF91EF91CF91BF91FB
:1013F000AF919F918F917F916F915F914F913F91AD
:101400002F911F910F910F900FBE0F901F90189565
:10141000FC01862F642F853010F080830895AF0182
:101420000C940A05AF92BF92CF92DF92EF92FF9297
:101430000F931F93CF93DF931F92CDB7DEB792E048
:10144000980F923028F4FB018083FA0110821DC0AE
:101450006A015B01F82E00E0EE24EA9410E0E982D4
:10146000AE014F5F5F4F612F802F0E940A05898177
:10147000F81205C0F5010083F601108306C01F5F56
:101480001E3069F70F5F053049F70F90DF91CF915C
:101490001F910F91FF90EF90DF90CF90BF90AF9092
:1014A0000895DC01EC914E2F50E0FA013797E031BE
:1014B000F10508F097C0EF59FF4F0C94982F91E079
:1014C00011968C91811101C090E08091050190FBF3
:1014D00085F980930501089511968C9180930601FA
:1014E000089511968C9180930701089511968C911F
:1014F00080930801089511968C91809309010895B5
:1015000011968C91119780930A0112968C91809379
:101510000B01089511968C91119780930C011296EE
:101520008C9180930D01089511968C911197809361
:101530000E0112968C9180930F01089512964C9192
:10154000129711966C9180E191E035C011968C91C3
:1015500011978093110112968C9180931201089536
:1015600012964C91129711966C9183E191E023C0F1
:1015700011968C9111978093140112968C918093FF
:101580001501089512964C91129711966C9186E16F
:1015900091E011C011968C911197809317011296CA
:1015A0008C9180931801089512964C911297119680
:1015B0006C9189E191E00C94080AEAE1F1E09C0168
:1015C000265F3F4F11968C91119790E0982F8827B6
:1015D00012964C911297842B8193919312962A170D
:1015E0003B0781F708950F931F93CF93DF93DC019F
:1015F000BC016F5F7F4FEC910E2F10E0F801319727
:10160000E631F10508F097C0EF58FF4F0C94982F82
:1016100080910501817004C08091050186958170DB
:1016200011968C9388C08091050182FB882780F9F0
:10163000F7CF8091050183FB882780F9F1CF809156
:10164000050182958170ECCF8091050185FB88278B
:1016500080F9E6CF8091050186FB882780F9E0CFED
:1016600080910601DDCF80910701DACF80910801DA
:10167000D7CF80910901D4CF80910A0111968C9324
:10168000119780910B0139C080910C0111968C93B8
:10169000119780910D0131C080910E0111968C93AC
:1016A000119780910F0129C0AC014E5F5F4F80916F
:1016B00010012BC08091110111968C93119780918C
:1016C00012011BC0AC014E5F5F4F809113011DC022
:1016D0008091140111968C931197809115010DC082
:1016E000AC014E5F5F4F809116010FC080911701D2
:1016F00011968C9311978091180112968C931BC0B0
:10170000AC014E5F5F4F80911901DF91CF911F9126
:101710000F910C94120AEAE1F1E00A9621811196E8
:101720002C9311972081329612962C931297129631
:10173000A817B90799F7DF91CF911F910F910895DD
:101740004FE150E066E270E085E091E00C940130FA
:101750004FE150E066E270E085E091E00C941F30CC
:10176000FF920F931F93CF93DF930E94E31984E7B7
:101770000E94FE0D86E70E94FE0D00E010E0FF24AF
:10178000F3940631110529F4809105018170C82F69
:101790000DC0C8018D7FCC9739F4C0910501C3FB02
:1017A000CC27C0F9CF2502C0C1E0D0E06C2F61701A
:1017B000262F462F802F0E94940E0F5F1F4F00345C
:1017C0001105F9F660E084E70E94900F61E086E77A
:1017D0000E94900FE5EFF3E08FEF819394E0E934FE
:1017E000F907D9F7DF91CF911F910F91FF900895DD
:1017F0008091080190E001968B30910514F08AE009
:1018000090E0809308010C94A80B8091080190E06F
:10181000019797FF02C080E090E08B30910514F0B3
:101820008AE090E0809308010C94A80B8091090154
:1018300090E001968430910514F083E090E080936D
:1018400009010C94A80B8091090190E0019797FF82
:1018500002C080E090E08430910514F083E090E0D5
:10186000809309010C94A80B8091070190E00896E1
:101870008F3F910519F014F08FEF90E080930701EE
:101880000C94A80B8091070190E0089797FF02C085
:1018900080E090E08F3F910519F014F08FEF90E019
:1018A000809307010C94A80B80910A0190E00896A0
:1018B0008F3F910519F014F08FEF90E080930A01AB
:1018C0000C94A80B80910A0190E0089797FF02C042
:1018D00080E090E08F3F910519F014F08FEF90E0D9
:1018E00080930A010C94A80B80910B0190E008965C
:1018F0008F3F910519F014F08FEF90E080930B016A
:101900000C94A80B80910B0190E0089797FF02C000
:1019100080E090E08F3F910519F014F08FEF90E098
:1019200080930B010C94A80B80910C0190E0089619
:101930008F3F910519F014F08FEF90E080930C0128
:101940000C94A80B80910C0190E0089797FF02C0BF
:1019500080E090E08F3F910519F014F08FEF90E058
:1019600080930C010C94A80B80910D0190E00896D7
:101970008F3F910519F014F08FEF90E080930D01E7
:101980000C94A80B80910D0190E0089797FF02C07E
:1019900080E090E08F3F910519F014F08FEF90E018
:1019A00080930D010C94A80B0F931F93CF93DF939B
:1019B000EC018B01DB0112968C911297882329F0A0
:1019C0006C9111968C910E946205FE01FF55EE30DC
:1019D000F10508F050C0E957FF4FD8011296CC919D
:1019E0000C94982FCC2309F447C00E94340C3CC0BF
:1019F000CC2309F441C00E94420C36C0CC23E1F153
:101A00000E94F80B31C0CC23B9F10E94050C2CC008
:101A1000CC2391F10E94160C27C0CC2369F10E94BF
:101A2000230C22C0CC2341F10E94540C1DC0CC23B6
:101A300019F10E94620C18C0CC23F1F00E94740CC2
:101A400013C0CC23C9F00E94820C16C0CC23A1F095
:101A50000E94940C09C0CC2379F00E94A20C04C00F
:101A6000CC2351F00E94B40CC0E006C0CC2321F07E
:101A70000E94C20C01C0C1E08C2FDF91CF911F9159
:101A80000F910895EF92FF920F931F93CF93DF93DF
:101A9000F62E472FE82FF0E0711106C0EA5FF94FEC
:101AA0006491762F862F72C0272F30E0EA5FF94FBE
:101AB000E4910E2F10E056E0659FC0011124CFEF96
:101AC000D0E0BE010E94702F5BEA5603C001579F11
:101AD000900D11248F0D911D8F0D911D982F990F31
:101AE000890F7E01E21AF30AE09ED001E19EB00D5B
:101AF000F09EB00D1124489FA0011124452F5527B9
:101B00007E01E41AF50AE09EA001E19E500DF09ED0
:101B1000500D11247E01E81AF108E29EC001E39EF7
:101B2000900DF29E900D1124892F9927C81BD90B77
:101B3000C09FC001C19F900DD09F900D11246230B5
:101B4000710591F048F461157105E1F0613071059E
:101B5000A9F48B2F752F19C06430710561F038F02E
:101B60006630710579F00AC0892F7B2F0EC08E2F49
:101B70007B2FE52F0AC08E2F792F02C0852F7E2F55
:101B8000EB2F03C08B2F7E2FE92F6E2FDF91CF918C
:101B90001F910F91FF90EF900895E9E6F5E06083C3
:101BA000418324E630E042E050E0BF01880F0C940E
:101BB000701A0F931F93CF93DF93082F000FEB0141
:101BC00014E210936905EAE6F5E0DE018D91819358
:101BD00085E0EA37F807D1F724E630E041E150E04C
:101BE00069E675E0802F0E94701A105F6096143BC2
:101BF00041F7DF91CF911F910F910895CF93DF931C
:101C0000C82F4BE06DEF0E94CD0D40E06AE08C2FB5
:101C10000E94CD0D8FE39CE90197F1F700C0000011
:101C200040E060E08C2F0E94CD0D40E061E08C2F01
:101C30000E94CD0D40E066E08C2F0E94CD0D40E06B
:101C40006DEF8C2F0E94CD0DD0E040E06D2F8C2FDA
:101C50000E94CD0DDF5FD231C1F740E06D2F8C2F98
:101C60000E94CD0DDF5FD432C1F740E06D2F8C2F85
:101C70000E94CD0DDF5FD43BC1F74BE06DEF8C2FA1
:101C80000E94CD0D41E06AE08C2F0E94CD0D40E016
:101C90006DEF8C2FDF91CF910C94CD0D8034910599
:101CA00040F5880F991F880F991FFC01EF5CFE4FCC
:101CB00052813381808183707181A82FB0E0E0E987
:101CC0008E9FC0011124875B9B4FFC01E70FF11D24
:101CD000B4976083FC01E50FF11DB4974083830F37
:101CE000911DFC01B4972083FD01E851FD4F81E077
:101CF00080830895FF920F931F93CF93DF93182F44
:101D0000062FF42EC0E0D0E02F2D402F612FCE0102
:101D10000E944E0E2196C034D105B1F7DF91CF91CC
:101D20001F910F91FF9008957F928F929F92AF9293
:101D3000BF92CF92DF92EF92FF920F931F93CF93B8
:101D4000DF93362F54E0859FC0011124FC01EF5C26
:101D5000FE4F60816370762E618170E0CB018497C5
:101D60008C0197FF02C0095F1F4FA3E015950795EF
:101D7000AA95E1F7628170E07B0154E2E51AF1086F
:101D8000E701F7FC279673E0D595C7957A95E1F7BB
:101D9000638170E04B0154E2851A9108F40197FCCD
:101DA000379653E0F595E7955A95E1F768E0A62E4A
:101DB000B12CB5010E94842F6C01C701B5010E94AE
:101DC000842F7C01C401B5010E94842F1127672D47
:101DD00070E0DD24332399F032E1369FD001379F44
:101DE000B00D1124AC53BD4FA00FB11F01E010E0A6
:101DF00001C0000FCA94EAF73C91032B13C032E1F3
:101E0000369FD001379FB00D1124AC53BD4FA00FAA
:101E1000B11F01E010E001C0000FCA94EAF700957D
:101E20003C9103230C93DD27FF2432E1442391F0FE
:101E3000369FA001379F500D11244C535D4FC40FA6
:101E4000D51F41E050E001C0440FEA94EAF7388121
:101E5000432B12C0369FA001379F500D11244C53C5
:101E60005D4FC40FD51F41E050E001C0440FEA941C
:101E7000EAF74095388143234883AF0155279927D6
:101E800092E1969FF001979FF00D1124EC53FD4FC6
:101E9000E40FF51F222361F021E030E0A90102C028
:101EA000440F551F8A95E2F7CA019081892B0CC017
:101EB00021E030E0A90102C0440F551F8A95E2F7E6
:101EC000CA018095908189238083FB01EE53FD4FE9
:101ED00081E08083DF91CF911F910F91FF90EF9070
:101EE000DF90CF90BF90AF909F908F907F9008959C
:101EF000CF93DF93262F30E0E901C851DD4F988161
:101F0000992351F090E9929FB001939F700D112495
:101F1000675B7B4F0E94D90D1882DF91CF910895A6
:101F2000FF920F931F93CF93DF93E62FF0E0EE53D2
:101F3000FD4F90819923B1F0F82E82E1689FE00176
:101F4000112400E010E0F801EC0FFD1FEC53FD4FF1
:101F50004081602F8F2D0E94CD0D0F5F1F4F0231EA
:101F6000110589F7DF91CF911F910F91FF9008958F
:101F700021B3342F3095232331B3432B3FB7F8944B
:101F8000FC01680F791FE617F70789F0819198E047
:101F900041BB000000C087FF21BB880F000000C0CC
:101FA00000C000C021BB00C09A9591F7ECCF3FBFA5
:101FB000089520B3242B20BB9B01220F331F620FF7
:101FC000731F0E94B80F87EC90E00197F1F700C0F3
:101FD0000000089541E00C94D90F81E0089581E05C
:101FE00008951F93CF93DF9300D000D01F92CDB7F9
:101FF000DEB749835A836B832091020389819A81DA
:10200000211112C0662349F00E94B324182F682FB3
:1020100089819A810E945C2403C00E948724182F22
:1020200069817A81812F04C00E94B32469817A81F9
:102030000F900F900F900F900F90DF91CF911F9105
:102040000C941917FC014081518162817381848154
:102050000C94F10FFF920F931F93CF93DF93E82F10
:10206000F0E0EA59FA4FF490C82FC695C695C69588
:10207000D0E0FE01EA50FA4F0491877010E0082E7C
:1020800002C0159507950A94E2F701701127FE0129
:10209000EA51FA4FC491D0E002C0D595C7958A9510
:1020A000E2F7C170DD270115110519F081EE0E94DC
:1020B000F21B209719F086EE0E94F21B8F2D0E94D2
:1020C000DB1CCD2B19F086EE0E947C1C012B41F00D
:1020D00081EEDF91CF911F910F91FF900C947C1CAA
:1020E000DF91CF911F910F91FF900895EF92FF9292
:1020F0000F931F93CF93DF93EC01162F0AE0888193
:10210000882309F457C0813009F045C089818130A6
:1021100051F47E0182E0E80EF11CCA818C2F0E94EE
:10212000F21B8C2F12C0823049F47E01E2E0EE0EE9
:10213000F11C8A810E94F21BE7012FC0833041F419
:102140007E01F2E0EF0EF11C8A810E947C1CF4CF2C
:10215000843011F0219621C02A81229680E090E0FF
:1021600030E0205331092A30310558F4089FA0018E
:10217000099F500D1124C901840F951F21962881B4
:10218000EFCF009751F0EFE9FFE03197F1F700C092
:1021900000000197F6CF0E942A102196812F8823F4
:1021A00009F4ADCFEFE9FFE03197F1F700C000008F
:1021B0008150F5CFDF91CF911F910F91FF90EF905C
:1021C000089560E00C9476108F929F92AF92BF9228
:1021D000CF92DF92EF92FF920F931F936B017C01DE
:1021E00081E090E0A0E0B0E04C015D0104C0880C0B
:1021F000991CAA1CBB1C4A95D2F7AC01BD0104C0B6
:10220000440F551F661F771F2A95D2F74829592971
:102210006A297B2904C0880F991FAA1FBB1F0A9532
:10222000D2F78A019B010C211D212E213F2140174D
:1022300051076207730739F4BC01CD016C297D2970
:102240008E299F290AC080959095A095B095BC01D4
:10225000CD016C217D218E219F211F910F91FF9037
:10226000EF90DF90CF90BF90AF909F908F900895A8
:102270000F93382F262F6091680370916903809126
:102280006A0390916B03042F432F0E94E4100F9177
:102290000C9498230E9424150E94EB25811102C002
:1022A0000E948B260C948D040C948F04089581E079
:1022B00008950C945711CF93C82F0E94A3048C2F1C
:1022C0000E945911CF91089508950E94511F0E94B4
:1022D00064112FEF84E39CE0215080409040E1F7AF
:1022E00000C000000C94B5270F931F93CF93DF938A
:1022F000EC010E9422108C01BE010E945815882317
:1023000079F1BE01C8010E949304882349F1BE01FE
:10231000C8010E944618882319F1BE01C8010E9415
:1023200087188823E9F0BE01C8010E94B2198823EA
:10233000B9F08A81882369F001158CE5180731F01E
:102340000E3D1C4531F40E948B260AC00E94651187
:1023500007C0CE01DF91CF911F910F910C94ED0F2B
:1023600080E0DF91CF911F910F91089580E090E080
:1023700008950895880F991FFC01EA5FF94F859130
:1023800094910895CF93DF930E9419170E94D4125D
:10239000EC018115904508F043C0C11580E4D807D1
:1023A00008F0CBC0C03ED10528F5C03CD10508F0EF
:1023B000B3C0C83AD10578F4C53AD10508F0A4C035
:1023C000C130D10509F4ECC008F4E8C0C430D1052F
:1023D00008F0E6C0E3C0CF3BD10508F0DFC0C85A23
:1023E000D0E0CC0FDD1FCF5CDD4F0990D881C02D30
:1023F000D464D6C0C11590E2D90750F4C11521E0CC
:10240000D20708F0CDC0C83ED10508F4C9C0C6C087
:10241000C11580E3D80708F086C0CE019F707FC049
:10242000C11595E5D90708F043C0C11524E5D207C9
:1024300008F09AC0C11582E5D80708F5C11591E5E5
:10244000D90708F07DC0CE0174E0969587957A95FE
:10245000E1F783709C2F937021E030E002C0220FDF
:10246000331F9A95E2F73C68382BCF70C695C69516
:1024700080E2C89FE0011124C22BD32B91C09E01A2
:10248000237033278C2F86958695C115D34508F088
:102490005CC0C1E0D0E002C0CC0FDD1F2A95E2F79E
:1024A00020E2829FC0011124C82BD92BDC6878C0A0
:1024B000C11529E5D207A0F4C11588E5D80708F0B1
:1024C00058C0C11596E5D90708F068C08C2F0E9446
:1024D00068138F71C82FD0E0DC2FCC27D06260C08A
:1024E000C1152AE5D20708F449C0CE0190568115DE
:1024F000904208F053C08D2F8F710E946813DD2722
:10250000D0628F71D82B4CC0C55AD0E0C15ADD4F74
:10251000C881D0E0D06444C0CE01805C91090E94A3
:10252000BA11EC013DC0CE019927D3FF03C0EC01E5
:10253000D86C36C0EC01D06C33C0DF70D06A30C0CC
:10254000DC2FCC27C16FD06A2BC0C1E0D0E002C025
:10255000CC0FDD1F2A95E2F720E2829FC0011124F3
:10256000C82BD92BDA681CC0DC2FCC27C46FD06AEB
:1025700017C0DC2FCC27C06FD06A12C08C2F8F7091
:102580000E94681394E0D695C7959A95E1F7CF70AD
:10259000D0E0DC2FCC27D069C82B02C0C0E0D0E04F
:1025A000CE01DF91CF9108958238910569F1B0F4A1
:1025B0008133910509F46DC048F48932910509F41D
:1025C00063C08A32910509F469C008958533910585
:1025D00009F455C089339105B9F00895833E9105FA
:1025E00069F138F4803E9105B1F0823E910509F120
:1025F0000895863E9105A9F1873E9105B9F1843E83
:10260000910509F064C023C02091950520FD4FC0BD
:1026100021FD4DC008958091950580FD44C08091B5
:10262000960580FF44C08091950584FD42C083EEED
:102630004DC08091950582FF38C0F5CF80919505FA
:1026400082FD33C08091960580FD31C0ECCF809132
:10265000960581FF32C08091950584FD2AC087EEE2
:1026600035C08091950583FF26C0F5CF80919505F3
:1026700083FD21C08091960581FD1FC0ECCF809124
:10268000950585FD1CC01DC08091950585FD19C06F
:1026900016C08091950586FD16C017C080919505DE
:1026A00086FD13C010C089E311C082EE0FC080EE1A
:1026B0000DC080E00BC086EE09C084EE07C089E241
:1026C00005C085E303C08AE201C081E390E008957C
:1026D0009091950592FF0DC0282F2871283019F48C
:1026E000877F846006C0282F2471243011F48B7FEB
:1026F000886093FF0DC0282F2871283119F4877E38
:10270000846106C0282F2471243111F48B7E8861E6
:102710002091960520FF0DC0382F3871383019F4FC
:10272000877F816006C0382F3171313011F48E7F80
:10273000886021FF0DC0282F2871283119F4877E69
:10274000816106C0282F2171213111F48E7E8861AC
:1027500094FD877E0895E82FF0E0EE0FFF1FE95704
:10276000FA4F808191810895089580EA8A95F1F762
:10277000089508950C94B9130C94B913CF93DF9373
:10278000A0E7B2E045E752E061E070E08D91E82F0C
:10279000E295EF70F0E021A18F70EB0102C0CC0F49
:1027A000DD1F8A95E2F7CE019C2F9095922391A38D
:1027B00092A1892B82A34A175B0741F7A2E6B2E0F8
:1027C00040E752E061E070E08D91E82FE295EF7014
:1027D000F0E021A18F70EB0102C0CC0FDD1F8A95C4
:1027E000E2F7CE019C2F9095922391A392A1892B81
:1027F00082A34A175B0741F7EDE7F5E0A7E8B5E0EC
:1028000087E895E0119211921D921D928E179F07F5
:10281000C9F785E00E94AD14DF91CF910C944A1165
:102820002F923F924F925F926F927F928F929F92E0
:10283000AF92BF92CF92DF92EF92FF920F931F93CE
:10284000CF93DF9380E7C82E82E0D82E0DE715E006
:1028500097E8492E95E0592E312C88248394912CA9
:102860005801D8016D907C9011971D921C92F60131
:1028700081916F01C82FC295CF70D0E099A18F7060
:10288000740101C0EE0C8A95EAF7892F8E2989A37D
:102890008AA12E2C209482218AA30E94B513E2E6FD
:1028A000F2E020E030E06191A62FA295AF70B0E099
:1028B00090968C91D8014D915C9190E06F7002C020
:1028C000959587956A95E2F780FD08C0C401022EB0
:1028D00002C0880F991F0A94E2F702C080E090E0DE
:1028E000482B592BD8014D935C932F5F3F4F2E30CF
:1028F0003105C9F689A1282229A28AA1E82AEAA2DB
:102900000E5F1F4F81E0F5012081318126153705CB
:1029100009F480E0382A4016510609F0A1CF232D92
:1029200045E067E875E08DE795E00E94AE140E94EF
:102930005411832DDF91CF911F910F91FF90EF9054
:10294000DF90CF90BF90AF909F908F907F906F90CF
:102950005F904F903F902F9008950895FF920F93AE
:102960001F93CF93DF93F82E092F162FD72FC42F45
:10297000222349F081E08093EC020E944D2790933E
:10298000EB028093EA028091EC028823D9F08091D7
:10299000EA029091EB020E946527069798F0EF2DCE
:1029A000F02FA12FBD2F80E090E04C2F50E0841736
:1029B000950734F4219131912D933D930196F7CFF2
:1029C0001092EC02DF91CF911F910F91FF9008952B
:1029D00082E290E00E941130803281F483E290E044
:1029E0000E941130833051F484E290E00E94113053
:1029F00091E0873009F090E0892F01C080E081707C
:102A00000895CF93C82F811102C06FEF01C060E21B
:102A100082E290E00E942F30C11102C06FEF01C02E
:102A200063E083E290E00E942F30C11102C06FEF9B
:102A300001C067E084E290E0CF910C942F3080E0F9
:102A40000E9401150C94E5250E9410148FE39CE967
:102A50000197F1F700C000000E94101480E00E946E
:102A6000AB1380FF04C00E941F150C94B527089576
:102A700085E290E00E941130682F70E080E090E0E5
:102A8000089585E290E00C942F300E947E040E940D
:102A9000E81481110CC060E070E0CB010E94411588
:102AA0000E9492160E94731781E00C9401150895FC
:102AB000CF93FB01C281CC23E9F09C0122513F4519
:102AC0002031310520F482510E9483170CC08031DF
:102AD000FFE59F0751F481E00E94BE2343E062E0DE
:102AE00081E00E943811C0E018C081319F45A9F4EF
:102AF00082E0F2CF8031EFE59E0711F481E004C05F
:102B000081319F4549F482E00E94DF2343E062E087
:102B100081E00E94381101C0C1E08C2FCF9108954F
:102B2000EF92FF920F931F93CF93DF93EC01162F39
:102B3000E8818E2F90E0FC013197E331F10508F038
:102B4000A3C0EB56FF4F0C94982F198289E04DC01B
:102B50008981823039F0833061F08130D9F50E946B
:102B6000592702C00E9438159A838B837C836D831A
:102B70008DC07E0100E0802F0E94AB13F70192838D
:102B800083830F5FF2E0EF0EF11C0530A1F77EC0EA
:102B900089818230F9F46A817B818C819D810E94D8
:102BA0009E2F0E94411572C04B816A8189810E94CB
:102BB00064169C838D836AC02C813D813227232734
:102BC00032274B816A8189810E947D165FC00E94F5
:102BD00092165CC0612FCE010E94B10457C00E94C2
:102BE000261724C00E94281799838A834FC06B81BF
:102BF00070E089819A81AE014C5F5F4F98278927E9
:102C000098270E942B1742C06B8170E089819A81BE
:102C1000AE014C5F5F4F9827892798270E94501775
:102C200035C00E94731732C00E94501689832EC08F
:102C30006B8170E089819A81AE014C5F5F4F98276C
:102C4000892798270E94D11621C06B8170E0898165
:102C50009A81AE014C5F5F4F9827892798270E9481
:102C6000F61614C00E941F1511C0CE010E948428C0
:102C70002FEF81EE94E0215080409040E1F700C0BA
:102C800000000E94B52702C08FEF8883612FCE011C
:102C9000DF91CF911F910F91FF90EF900C948428BA
:102CA00084E0089550E0440F551F2CE1629F400DD1
:102CB000511D11249A016CE8869F200D311D1124AD
:102CC000C9018B5B9F4F08950F931F93CF93DF93A1
:102CD0000E9452168C010E941130C82FD0E0DC2FC8
:102CE000CC27C80101960E9411309E01282BC901F2
:102CF000DF91CF911F910F9108950F931F93CF9361
:102D0000DF93122F032F0E945216EC01602F0E94B6
:102D10002F30612FCE010196DF91CF911F910F913E
:102D20000C942F30AF92BF92CF92DF92EF92FF922E
:102D30000F931F93CF93DF93A12CE12CF12CB12C97
:102D400000E010E0C0E0D0E06701C00ED11EFE013F
:102D5000EE0FFF1FEC0DFD1DEA5CFC4F2591349139
:102D60004C2F6B2D8A2D0E947D162196CE30D105D9
:102D700071F7045E1F4FB39485E0B812E3CF8CE87F
:102D8000E80EF11CA39484E0A812D9CFDF91CF9173
:102D90001F910F91FF90EF90DF90CF90BF90AF9079
:102DA0000895EF92FF920F931F93CF93DF93EA0161
:102DB0007A01E60EF71E8C01C8018B5B9F4FCE1582
:102DC000DF0569F0003322E0120720F40E94113081
:102DD000888301C0188221960F5F1F4FEDCFDF91CE
:102DE000CF911F910F91FF90EF900895EF92FF9276
:102DF0000F931F93CF93DF93EA017A01E60EF71E3C
:102E00008C01C8018B5B9F4FCE15DF0559F0003355
:102E100022E0120718F468810E942F3021960F5F7C
:102E20001F4FEFCFDF91CF911F910F91FF90EF9048
:102E30000895462F843038F4753028F46E3018F435
:102E4000672F0C94641680E090E0089580E1089567
:102E50008BE891E00895EF92FF920F931F93CF9329
:102E6000DF93EA017A01E60EF71E8C01C8018B5848
:102E70009D4FCE15DF0569F00B3821E0120720F4D5
:102E80000E941130888301C0188221960F5F1F4F66
:102E9000EDCFDF91CF911F910F91FF90EF900895AB
:102EA000EF92FF920F931F93CF93DF93EA017A0182
:102EB000E60EF71E8C01C8018B589D4FCE15DF051D
:102EC00059F00B3821E0120718F468810E942F3066
:102ED00021960F5F1F4FEFCFDF91CF911F910F9181
:102EE000FF90EF900895CF93DF93C5E7D2E060E0C5
:102EF000CE010E942F302196C11584E0D807B9F782
:102F0000DF91CF910895EF92FF920F931F93CF938C
:102F1000DF9300D01F92CDB7DEB7F82E8FE08F156C
:102F2000B8F18FEF93E00E941130811131C005E7B5
:102F300012E0FF2069F0011584E0180749F1C8018B
:102F40000E941130811101C0FA940F5F1F4FF1CF21
:102F500019821A821B8278018FEFE81AF80AC801D9
:102F60000E94113089831A82882391F08150833026
:102F700048F40E5F1F4FC7010E9411308A838823D7
:102F800039F07801CE0101960E94E1108701E3CF6C
:102F90000F900F900F90DF91CF911F910F91FF90A5
:102FA000EF9008950F931F93CF93DF93C62FD42FE5
:102FB000122FFC0182818823C9F06093EF020E94E6
:102FC0004D279093EE028093ED0280E28C0F8830C3
:102FD00008F057C0C77081E001C0880FCA95EAF7B2
:102FE000DF91CF911F910F910C94EE1C8091EF0215
:102FF000681330C08091ED029091EE020E94652727
:10300000883C910538F500E20D0FCD17B9F080E24C
:103010008C0F883040F4C77081E001C0880FCA95DA
:10302000EAF70E94F51C083028F581E09D2F977083
:1030300001C0880F9A95EAF70E94EE1C812F0E942A
:10304000DB1C0830F0F4D77081E001C0880FDA95FE
:10305000EAF70AC080E28C0F883098F4C77081E0EC
:1030600001C0880FCA95EAF7DF91CF911F910F91A8
:103070000C94F51C812FDF91CF911F910F910C942F
:10308000DB1CDF91CF911F910F9108959C01CB0123
:10309000233F4CE53407F9F078F4283DFCE53F0781
:1030A000B9F0293D4CE5340711F1273D3C4531F598
:1030B00026E241EE61EE1EC0253FFCE53F0799F098
:1030C00070F0263F3C45D1F427E245EE66EE12C093
:1030D00027E245EE0EC026E241EE60EE0BC027E28D
:1030E00045EE64EE07C026E241EE62EE03C028E240
:1030F00041E065EE0E94D21780E00895FC018281D4
:10310000882319F01092EF02089581E00895CF937B
:10311000DF93EC01FB018281882309F41FC1C230D7
:10312000FCE5DF0708F41BC1C6319CE5D90738F080
:103130009E012A5F3C452930310508F010C10E94EC
:10314000FE259093960580939505C031ECE5DE074A
:1031500009F4C3C008F041C0C8308CE5D80709F4B1
:103160009AC0F0F4C430ECE5DE0709F487C068F4D7
:10317000C2308CE5D80709F477C0C330DC4509F0CC
:10318000E3C080919505826076C0C630ECE5DE072D
:1031900009F46EC008F07BC08091950588606BC013
:1031A000CC308CE5D80709F485C068F4CA30ECE56A
:1031B000DE0709F474C008F079C00E94511F8091A5
:1031C0009505806858C0CE308CE5D80709F476C0E4
:1031D00008F07FC0809195058BC0CB3FECE5DE0702
:1031E00009F44FC018F5C3318CE5D80709F47DC048
:1031F00078F4C131ECE5DE0709F473C0C231DC4577
:1032000009F0A2C00E94511F809195058F7733C0AD
:10321000C5318CE5D80709F472C008F486C0CA3FEE
:10322000DC4509F091C0809196053EC0CF3FFCE59A
:10323000DF0709F45FC058F4CD3F9CE5D90709F4D6
:1032400044C008F43FC08091960582602DC0C13013
:10325000FDE5DF0709F475C008F45DC0C230DD4547
:1032600009F072C080E06EC080919505816003C056
:103270008091950580618093950566C08091950544
:1032800011C0809196058260809396055DC0809103
:1032900095058062F0CF809195058064ECCF809198
:1032A000950588608460E7CF8160EECF80919505B9
:1032B0008E7FE1CF809195058D7FDDCF8091950543
:1032C000877FD9CF8091960518C0809196058D7F14
:1032D000DBCF809195058F7ECECF809195058F7D38
:1032E000CACF809195058F7BC6CF80919505877F4A
:1032F0008B7FC1CF809196058D7F8E7FC5CF8091CA
:10330000950582FB222720F991E0922790FB82F914
:1033100090FB83F9B0CF80919605982F909591708E
:103320008E7F892B90FB81F9AFCF0E94511F809136
:10333000950587FB222720F991E0922790FB87F9DA
:103340009ACF81E00E948D268091950590919605F7
:103350000E940F260E94511F80E001C081E0DF9192
:10336000CF910895CF93DF9386319C4541F5EB01D2
:103370000E943425982F8A812091240130912501C3
:10338000882379F09A7A81E009F480E08093F00252
:10339000911102C069E201C065E3C9010E94F826EB
:1033A0000AC08091F002811102C069E201C065E3A8
:1033B000C9010E9403270E94822580E001C081E0AC
:1033C000DF91CF9108951092B9008CE08093B800FE
:1033D0000895EF92FF920F931F93CF93DF93182FCF
:1033E000EB011092BC0084EA8093BC000E944D2740
:1033F0007C018091BC0087FD0EC0CF3F8FEFD807C6
:10340000C1F30E944D278E199F098C179D0788F3E1
:103410008EEF9FEF2EC08091B900887F883041F0F9
:103420008091B900887F803119F08FEF9FEF21C024
:103430001093BB0084E88093BC000E944D278C0150
:103440008091BC0087FD0CC0CF3F8FEFD807C1F340
:103450000E944D27801B910B8C179D0788F3D8CFB6
:103460008091B900887F883111F08034F1F680E0D6
:1034700090E0DF91CF911F910F91FF90EF90089511
:103480000F931F93CF93DF93EB018093BB0084E8EE
:103490008093BC000E944D278C018091BC0087FD69
:1034A0000EC0CF3F8FEFD807C1F30E944D27801B7E
:1034B000910B8C179D0788F38EEF9FEF0CC0209126
:1034C000B900287F81E090E0283211F480E090E09C
:1034D000919581959109DF91CF911F910F91089559
:1034E000CF92DF92EF92FF920F931F93CF93DF93D0
:1034F0006B018A017901B9010E94E919E6010C0DFD
:103500001D1DC017D10761F424E92093BC00DF9191
:10351000CF911F910F91FF90EF90DF90CF90089582
:1035200097FDF2CFB70189910E94401AEACF90939C
:10353000F6028093F5020895E091F502F091F6020B
:10354000309721F00190F081E02D099480E00895FA
:10355000E091F502F091F602309799F02091300158
:10356000222359F02091950527FF07C0DC012C91FB
:1035700011962C93119725E02C930280F381E02D76
:10358000099408952091F3023091F4022817390725
:1035900071F09093F4028093F302E091F502F091C0
:1035A000F602309721F00680F781E02D0994089506
:1035B0002091F1023091F2022817390771F09093AF
:1035C000F2028093F102E091F502F091F602309759
:1035D00021F00084F185E02D0994089585B7806875
:1035E00085BF85B7806885BF089508950C94F51A46
:1035F0000C94F61A0C94F51A0C94F51A0E94EE1A13
:103600000E94FA1A0C94F81A81E008950E94442747
:103610000E94BE130E9445150E94D9270C94FC1AE3
:103620007F928F929F92AF92BF92CF92DF92EF9252
:10363000FF920F931F93CF93DF93CDB7DEB72A97F7
:103640000FB6F894DEBF0FBECDBF0E9410140E94CB
:10365000041B811111C08FEF89838A831B820E9412
:103660004D278160782F9D838C8349815A816B819E
:103670008D810E94BE1B4FC048EFA42E42E0B42EA5
:1036800000E010E0702E802F0E94AB136C01F5015A
:10369000819091905F01882699268114910431F4DC
:1036A0000F5F1F4F0530110569F7D5CF8091950346
:1036B00081FD0E94B41380E0EE24E394F12C940188
:1036C0002E213F21232B09F18E837F82CE20DF2004
:1036D00081E0CD2809F480E088870E944D27816031
:1036E000782F9A8789874E815F8168858A850E94B5
:1036F000BE1B000F111FF801E850FD4F8081918122
:10370000E826F926F182E08206C08F5FEE0CFF1CEE
:103710008E30A9F6C5CF0E949C1A9091F7028917A6
:10372000C9F00E949C1A8093F7022A960FB6F8946B
:10373000DEBF0FBECDBFDF91CF911F910F91FF90E4
:10374000EF90DF90CF90BF90AF909F908F907F9041
:103750000C945B112A960FB6F894DEBF0FBECDBF56
:10376000DF91CF911F910F91FF90EF90DF90CF905D
:10377000BF90AF909F908F907F900895CF93DF93ED
:10378000CDB7DEB72B970FB6F894DEBF0FBECDBF17
:103790004F83588769877A878B87DE01119686E089
:1037A000FD0111928A95E9F785E0FE0137960190B7
:1037B0000D928A95E1F749815A816B817C818D81D7
:1037C0009E810E9421222B960FB6F894DEBF0FBE79
:1037D000CDBFDF91CF910895FC01808191810E943E
:1037E000F5240895882309F486C0682F8238C1F42F
:1037F0000E949C1A81FD7FC069E380912401909111
:1038000025010E94F8260E9482252FEF81EE94E088
:10381000215080409040E1F700C0000069E319C0EA
:103820008338F9F40E949C1A80FD65C063E580919D
:103830002401909125010E94F8260E9482252FEFF5
:1038400081EE94E0215080409040E1F700C00000FC
:1038500063E580912401909125010E9403270C9437
:1038600082258438C1F40E949C1A82FD44C067E41A
:1038700080912401909125010E94F8260E948225C2
:103880002FEF81EE94E0215080409040E1F700C09E
:10389000000067E4DECF8CEF860F813A38F4809128
:1038A0002401909125010E94F826D9CF80E2860F4D
:1038B000883048F4677081E001C0880F6A95EAF7A4
:1038C0000E943725CCCFEBE5E60FE33038F4F0E08B
:1038D000ED55FD4F808190E00C94C21A685A673113
:1038E00050F4E62FF0E0EE0FFF1FEB58FD4F808104
:1038F00091810C94D81A0895882309F45BC0682F2D
:10390000823879F40E949C1A81FF54C069E3809147
:103910002401909125010E94F8260E94822569E3E6
:1039200010C08338B1F40E949C1A80FF43C063E545
:1039300080912401909125010E94F8260E94822501
:1039400063E580912401909125010E9403270C9446
:103950008225843879F40E949C1A82FF2BC067E488
:1039600080912401909125010E94F8260E948225D1
:1039700067E4E7CF8CEF860F813A18F380E2860F79
:10398000883048F4677081E001C0880F6A95EAF7D3
:103990000E943D25DCCF8BE5860F833020F480E04C
:1039A00090E00C94C21A685A673120F480E090E0ED
:1039B0000C94D81A0895CF93C82F0E94F21BC933D4
:1039C00049F42FEF87EE93E0215080409040E1F7DB
:1039D00000C000008C2FCF910C947C1C882321F018
:1039E0000E9437250C9482250895882321F00E9497
:1039F0003D250C9482250895CF92DF92EF92FF929D
:103A00000F931F93CF93DF937C01062FC72FFC01E9
:103A1000158112951F70D281D1110E9454250E94E8
:103A20002D25882379F0DD2369F080E2800F88302E
:103A300048F082E00E94CC250E942D2591E0D82EEE
:103A4000D92601C0D12CCC2EC2948FE0C8228C2D57
:103A500090E0FC01E855FF4F0C94982F8C2F807F4D
:103A6000CF70882311F0C295C07FDD2399F0CC235D
:103A700009F482C180E2800F883010F0011104C087
:103A80008C2F0E94372503C08C2F0E9447250E944F
:103A9000822572C1802F0E947C1CCC2309F491C125
:103AA00080E2800F883010F0011104C08C2F0E943A
:103AB0003D2503C08C2F0E944D250E94822581C187
:103AC0008C2F807FCF70803211F0C295C07F002391
:103AD00019F00130C9F022C0DD2371F0112341F04B
:103AE000113031F40E9467258C2B0E946F2569C12B
:103AF0000E9467258C2B1DC0112319F0113009F489
:103B000060C10E94782525C0DD2321F0163008F021
:103B100058C10EC0153008F054C11BC0DD2361F040
:103B2000112331F0F701858180FF26C18F708583D5
:103B30008C2F0E94EE1C45C1112359F0093309F066
:103B40002CC1FFEF27EE83E0F15020408040E1F7E9
:103B500022C18C2F0E94F51C34C18C2F869586952E
:103B6000837019F0813061F02CC1DD2321F0802FAA
:103B70009C2F937002C080E090E00E94C21A29C17D
:103B8000DD2321F0802F9C2F937002C080E090E015
:103B90000E94D81A1EC18C2F837009F045C0D11124
:103BA00014C1402F429546954770440F440F602F33
:103BB0006F70862F90E0A0E0B0E0042E04C0880F64
:103BC000991FAA1FBB1F0A94D2F704FF10C00FE071
:103BD00010E020E030E004C0000F111F221F331F4F
:103BE0004A95D2F7009510952095309503C000E0D6
:103BF00010E09801C695C695C370BC01CD01602B3D
:103C0000712B822B932BC23049F058F4C13019F03C
:103C10000E947223DAC00E946023D7C00E948423CE
:103C2000D4C00E945E23D1C0DD2319F08C2F817097
:103C300001C08695882309F4C8C0402F4295469557
:103C40004770440F440F602F6F70862F90E0A0E004
:103C5000B0E0042E04C0880F991FAA1FBB1F0A944E
:103C6000D2F704FF10C00FE010E020E030E004C005
:103C7000000F111F221F331F4A95D2F70095109590
:103C80002095309503C000E010E09801C695C695D8
:103C9000C370BC01CD01602B712B822B932BC230E2
:103CA00049F058F4C13019F00E9437248EC00E94A8
:103CB00025248BC00E94492488C00E94982385C077
:103CC000CF70DD2339F08C2F0E94BE23802F0E94FD
:103CD000EE1C7BC0802F0E94F51C8C2F0E94DF23DE
:103CE00074C0023F01F128F4003F41F0013FA1F010
:103CF0003FC0033FF9F0043F39F13AC0DD2341F002
:103D0000153008F05EC08C2F8F710E94042459C0BA
:103D1000163008F056C0F7CFDD2339F08C2F8F71A5
:103D20000E94BE234EC0DD23C9F38C2F8F710E94E9
:103D3000DF2347C0DD2329F08C2F8F710E94A92338
:103D400040C00E94A4233DC0DD2349F0CF718C2FD9
:103D50000E94BE2363E08C2F0E94B72532C081E011
:103D60000E94CC25123068F182E00E94CC2529C047
:103D7000DD2331F0112391F2802F0E94F21B21C02C
:103D8000112399F2093349F49FEFE7EEF3E09150E4
:103D9000E040F040E1F700C00000802F0E947C1C52
:103DA00010C04C2F4F70602FC7010E94B6110E94A7
:103DB000CF220FC04C2F4F70602FC7010E94B91146
:103DC00008C088EF8C0D843020F40E949C1A0E9459
:103DD0005B11DD20C9F00E94292580FD15C0F70187
:103DE00012820E9423250E94BE23C7010E940D1F3C
:103DF0000E942325DF91CF911F910F91FF90EF90AB
:103E0000DF90CF900C94DF23DF91CF911F910F9122
:103E1000FF90EF90DF90CF9008950F931F93CF9373
:103E2000DF93EC01988189812B813C81232B31F038
:103E30008F3F31F481E09F3F19F403C081E001C05E
:103E400080E080FD13C0CE010E947411882371F0C0
:103E5000688179818A810E9400258C010E945B24FF
:103E60000E944C23B801CE010E94FC1CDF91CF912F
:103E70001F910F9108950E9454250E9464250E946D
:103E8000822580E090E00E94C21A80E090E00C94CD
:103E9000D81A80912401909125010E940E270C943C
:103EA0003B1F0E9444250C94491FE92FE295EF70B7
:103EB0004E2F50E0FA013297EE30F105B0F4E8549D
:103EC000FF4F0C94982F803F91F018F4883E68F4CF
:103ED0000EC0843F51F40BC0883E48F0813F29F466
:103EE00006C093FB882780F9089580E0089581E05B
:103EF00008950E94F5240E94551F0895CF93DF93E3
:103F000000D000D01F92CDB7DEB70F900F900F906A
:103F10000F900F90DF91CF910895CF93DF9300D052
:103F200000D000D0CDB7DEB726960FB6F894DEBF2E
:103F30000FBECDBFDF91CF9108951F93CF93DF9335
:103F4000C091030316E080910403C81799F0D0E0F4
:103F50001C9FF0011D9FF00D1124EB5FFC4F408171
:103F6000518162817381848195810E948D1F219688
:103F7000C770E9CFDF91CF911F910895409135032C
:103F80005091360360913703709138038091390363
:103F900090913A030C948D1FCF9380913A038295B0
:103FA0008F7009F05FC080913703882309F45AC0ED
:103FB00080910303B091040370913503A0913603FF
:103FC000409138035091390391E07F3F09F090E030
:103FD000692FC6E08B1709F445C04115510521F042
:103FE000AF3F21F020E003C021E001C0262F90E088
:103FF00020FD35C0C89FF001C99FF00D1124EB5F73
:10400000FC4F21812A132BC02081271328C0228135
:10401000211125C0238134812417350710F4215044
:104020003109241B350B283C3105C8F420913A0393
:104030002F70206120933A0326E0289FF001299FEA
:10404000F00D1124E65FFC4F80818F7080618083CA
:1040500085E393E00E940D1FCF910C949D1F019664
:104060008770B8CFCF910895AF92BF92CF92DF9271
:10407000EF92FF920F931F93CF93DF93CDB7DEB7ED
:1040800061970FB6F894DEBF0FBECDBF8C0185E0FF
:10409000F801DE011D9601900D928A95E1F7D80195
:1040A0004C9111965C9111971296EC9030913503DA
:1040B000609136038091380390913903009731F075
:1040C0006F3F31F421E03F3F19F403C021E001C00C
:1040D00020E0B22FB170BB2E20FD60C1F801C3807B
:1040E000D480A0903703AA2009F4EEC020913A03AF
:1040F000C816D90628F0D601A81BB90BCD0104C0FB
:10410000809590958C0D9D1DFF24F394883C91051E
:1041100080F0F12C207F09F09CC07C2DD98AC88AC0
:104120006E2D89890E947E1F85E393E00E940D1FFA
:104130002DC1822F807F09F054C0561314C0431341
:1041400012C0FE2CE1100FC02F70206120933A03A3
:104150000E94BE1F85E393E00E940D1F80913A03E9
:10416000F80185835CC1CD2831F05F3F31F481E0F7
:104170004F3F19F403C081E001C080E080FD03C01F
:1041800081E08E2502C080E090E0F82FF170FF2ED4
:1041900080FF1CC0809103032091040336E0821746
:1041A00009F41AC190E0389FF001399FF00D1124F5
:1041B000EB5FFC4F6181561306C06081461303C05C
:1041C0006281E61203C001968770E9CFFE2CEE20D3
:1041D00009F425C180913A03816080933A03F12C60
:1041E0001EC1561309C0431307C0E11005C08091DA
:1041F0003A03F8018583A4C04D875E878D859E852F
:104200000E94791F882379F1EE2069F120913A0309
:10421000822F82958F7090E0029774F08091350321
:104220009091360398878F831986DB86CA862C8700
:10423000CE0107960E940D1F86E0F801A5E3B3E0CA
:1042400001900D928A95E1F70E94CC1F0E94BE1F3B
:104250000DC0561771F04D875E878D859E850E9433
:10426000791F81111AC0C8010E940D1FFF24F39409
:10427000D6C04313F0CFE110EECF80913A03F8019E
:104280008583C8010E940D1F86E0E5E3F3E0DF01AE
:104290001D928A95E9F7FA2CC2C0EE2021F32091F5
:1042A0003A03822F82958F7090E002972CF28091D2
:1042B0003503909136039A8389831B82DD82CC82F9
:1042C0002E83CE010196B6CFC816D90628F0F60186
:1042D000E81BF90BCF0104C0809590958C0D9D1DB6
:1042E000883C910548F0F12C7C2DD98AC88A6E2D26
:1042F00089890E947E1F4AC0FE2CEE2009F4B3CFAC
:10430000561333C0431331C020913A0320FD24C01B
:10431000822F82958F70482F50E041155105E1F0B2
:10432000D80115962C9315974F30510549F08F5FA2
:10433000982F9295907F822F8F70892B15968C9352
:10434000C8010E940D1F86E0F801A5E3B3E00190CB
:104350000D928A95E1F73DC086E0F801A5E3B3E050
:1043600001900D928A95E1F75AC04D875E878D8541
:104370009E850E94791F81115FCF80913A038160F1
:1043800080933A03C8010E940D1F49C0E5E3F3E0A2
:1043900086E0DF011D928A95E9F71BC0EE2009F443
:1043A00062CF4D875E878D859E850E94791FF82E8E
:1043B000882309F458CF86E0F801A5E3B3E0019023
:1043C0000D928A95E1F785E393E00E94EC1B0E9431
:1043D000CC1F0E94BE1F23C04D875E878D859E85A2
:1043E0000E94F524292F22952F70223028F49F70E7
:1043F00039F0811105C00BC0243028F49F7049F4B6
:10440000805E883020F0C8010E940D1FBF2CFB2C5D
:1044100006C0D80115969C91907F91F7F8CF8F2D0B
:1044200061960FB6F894DEBF0FBECDBFDF91CF917E
:104430001F910F91FF90EF90DF90CF90BF90AF90C2
:1044400008951F93CF93DF93CDB7DEB72C970FB6A8
:10445000F894DEBF0FBECDBF4F83588769877A8738
:104460008B879C87CE0107960E9434208823D1F049
:104470009F8188852A853B85232B31F08F3F31F43E
:1044800081E09F3F19F403C081E001C080E080FD1E
:1044900047C04F81588569857A858B859C850E94A8
:1044A0008D1F3EC086E0FE013796DE011196019019
:1044B0000D928A95E1F7FF81E8856A857B85611514
:1044C000710531F0EF3F31F481E0FF3F19F403C093
:1044D00081E001C080E080FD23C02091040330E032
:1044E000C9010196877099274091030350E0841712
:1044F0009507F1F1F983EA837D836C8396E0929FBF
:10450000D001939FB00D1124AB5FBC4FFE013196DB
:1045100001900D929A95E1F7809304030E949D1FEC
:1045200016E08091030390910403891771F1189F9D
:10453000C00111248B5F9C4F0E943420882329F1F5
:10454000E09103031E9FF0011124EB5FFC4F4081BB
:10455000518162817381848195810E948D1F809138
:10456000030390E001968770992780930303D9CFC6
:104570000E94511F1092040310920303E5E3F3E03D
:1045800086E0DF011D928A95E9F72C960FB6F89424
:10459000DEBF0FBECDBFDF91CF911F910895EF9287
:1045A000FF920F931F93CF93DF938C01892B09F414
:1045B0006CC0F12CEE24E394E8012196F80184917B
:1045C000843740F4843008F051C0813081F082306B
:1045D00019F15BC0853709F444C0A8F19CE7980F36
:1045E000903708F052C08F770E947C1C41C00E5F4C
:1045F0001F4FFE01849190E2980F983050F487701D
:10460000FE2D01C0FF0F8A95EAF78F2F0E945725D4
:1046100014C00E94F21B2DC00E5F1F4FFE0184913B
:1046200090E2980F983060F48770FE2D01C0FF0F64
:104630008A95EAF78F2F0E945D250E94822519C076
:104640000E947C1C16C00E5F1F4FFE01C491CC233C
:1046500081F08FE99FE00197F1F700C00000C150A1
:10466000F6CF0E5F1F4FFE01F49003C00E94F21BB5
:104670008E018F2D882309F49FCFEFE9FFE031975A
:10468000F1F700C000008150F5CFDF91CF911F916D
:104690000F91FF90EF900895089508950C944D2385
:1046A0000C944E230E94502360936C0370936D030F
:1046B00080936E0390936F030C943B1F0C945223D2
:1046C0000F931F9300916C0310916D0320916E0363
:1046D00030916F03602B712B822B932B1F910F91C5
:1046E0000C9452230F931F9300916C0310916D0350
:1046F00020916E0330916F036023712382239323F3
:104700001F910F910C9452230F931F9300916C03F0
:1047100010916D0320916E0330916F036027712714
:10472000822793271F910F910C9452230C944D23B1
:104730000E949623609368037093690380936A03D1
:1047400090936B030C943B1F60E070E0CB010C94E2
:1047500098230F931F9341E050E060E070E08A01DE
:104760009B0104C0000F111F221F331F8A95D2F72F
:10477000C901B8011F910F910C9498230F931F93B7
:1047800041E050E060E070E004C0440F551F661F38
:10479000771F8A95D2F78091680390916903A09161
:1047A0006A03B0916B038A019B01082B192B2A2BFA
:1047B0003B2BC901B8011F910F910C9498230F93C3
:1047C0001F9341E050E060E070E004C0440F551FCB
:1047D000661F771F8A95D2F7409550956095709522
:1047E0008091680390916903A0916A03B0916B0373
:1047F0008A019B01082319232A233B23C901B801FD
:104800001F910F910C9498230F931F9341E050E058
:1048100060E070E004C0440F551F661F771F8A9543
:10482000D2F78091680390916903A0916A03B091D7
:104830006B038A019B01082719272A273B27C901F7
:10484000B8011F910F910C9498230F931F9300911F
:1048500068031091690320916A0330916B03602B08
:10486000712B822B932B1F910F910C9498230F93F4
:104870001F93009168031091690320916A0330919E
:104880006B0360237123822393231F910F910C9458
:1048900098230F931F93009168031091690320914F
:1048A0006A0330916B0360277127822793271F913A
:1048B0000F910C94982308952EE0929F800D11245F
:1048C000E82FE695E695E695877051E001C0550F13
:1048D0008A95EAF785E0E89FF0011124E55CFC4F3A
:1048E00020E030E070E04081CB01022E02C09695BE
:1048F00087950A94E2F78170819584278523842720
:1049000081932F5F3F4F2530310569F708952EE0E1
:10491000929F800D1124682F669566956695982F55
:10492000977085E0689FB001112440E050E080E07E
:10493000FB01E40FF51FE55CFC4F208130E0092E00
:1049400002C0369527950A94E2F721703327042E8A
:1049500001C0220F0A94EAF7822B4F5F5F4F453068
:10496000510531F70895BF92CF92DF92EF92FF92F7
:104970000F931F93CF93DF938C01C0906803D09067
:104980006903E0906A03F0906B0380916C0390914F
:104990006D03A0916E03B0916F03C82AD92AEA2A49
:1049A000FB2ACFE1D0E0D701C6010C2E04C0B6959A
:1049B000A795979587950A94D2F780FD04C0219713
:1049C00090F7B12C07C0BC2EB8018C2F0E94C211E9
:1049D0000197A9F38B2DDF91CF911F910F91FF903C
:1049E000EF90DF90CF90BF900895CF93DF93EC01CD
:1049F0000E94B324BE010E94C211DF91CF9108959D
:104A00001F93CF93DF93EB0190910203992321F041
:104A1000CB010E94F52413C0882349F0CB010E94EA
:104A2000B324182F682FCE010E945C2404C0CB0150
:104A30000E948724182FBE01812F0E94C211DF918E
:104A4000CF911F91089580917003859585958595E7
:104A50000895809170038770089590917003977006
:104A600081E009F480E00895809194030895909185
:104A70009403892B809394030895809590919403D7
:104A8000892380939403089510929403089590913C
:104A90009303892B809393030895809590919303BA
:104AA000892380939303089510929303089590911E
:104AB0009203892B8093920308958095909192039D
:104AC0008923809392030895109292030895809110
:104AD0007103089508950C946A250C946B259091A8
:104AE0007103981721F0809371030C946D2508953C
:104AF00080917103882329F01092710380E00C9457
:104B00006D250895E0912401F09125018091940391
:104B10008083E0912401F09125019081809193039D
:104B2000892B8083E0912401F0912501908180916F
:104B30009203892B808380917103882381F0E09117
:104B40002401F09125019081892B8083809124019B
:104B5000909125010E94922681110E9478258091D2
:104B60002401909125010C94A81A0C946A2598E0D0
:104B7000899F90011124262B209370030E94BE234D
:104B8000809170038595859585950C94B525109237
:104B9000700380E00C94B5252091700380958223EA
:104BA00080937003982F977079F430E0482F082E87
:104BB000000C550B2417350739F08595859585959B
:104BC0000E94DF230C94C72508956FEF7FEF80E0EC
:104BD00090E00C944D3080E090E00E94193021E08C
:104BE0008C3E9E4F09F020E0822F089582E090E0F5
:104BF0000C94113083E090E00C941130CF9384E05A
:104C000090E00E941130C82F81E290E00E941130A4
:104C10002C2F30E0A901582BCA01CF910895CF93D2
:104C2000C92F682F84E090E00E942F306C2F81E222
:104C300090E0CF910C942F30AB01BC018FE090E05D
:104C40000C944130AB01BC0183E190E00C94413005
:104C500060E070E0CB010C94222660E070E0CB01B4
:104C60000E941C260C9428266CEE7EEF80E090E0DB
:104C70000E944D3060E082E090E00E942F3060E0C2
:104C800083E090E00E942F3010926C0310926D032D
:104C900010926E0310926F0360E084E090E00E9437
:104CA0002F3060E081E290E00E942F3060E085E0EC
:104CB00090E00E942F3060E086E090E00E942F306C
:104CC0006FEF87E090E00E942F3040E050E0BA01A3
:104CD00088E090E00E94413060E08DE090E00E942A
:104CE0002F3040E050E0BA0188E190E00E9441306E
:104CF00060E087E190E00E942F3040E050E0BA0190
:104D00008CE190E00E94413060E080E290E00E94FF
:104D10002F300C942D260C943426682F8EE090E0D2
:104D20000C942F30FC01329680913001882331F0B1
:104D30008091950587FF02C09EE101C096E080E06A
:104D4000915028F021912223D9F38F5FF9CF089554
:104D50009C01FC0132969FEF80E04191461789F05B
:104D60009F3F19F4411101C0982F8F5F8630A9F73A
:104D70009F3F39F0F901E90FF11D97FDFA95628324
:104D8000089508959C012A5F3F4FFC01428146131C
:104D900001C01282019682179307B9F70895262F52
:104DA0002695269526952E3168F4FC01E20FF11D1B
:104DB000677021E030E001C0220F6A95EAF7828136
:104DC000282B22830895262F2695269526952E3169
:104DD00070F4FC01E20FF11D677021E030E001C0CA
:104DE000220F6A95EAF7209582812823228308956D
:104DF00020913001222329F02091950527FD0C9464
:104E0000CF260C94A82620913001222329F020914E
:104E1000950527FD0C94E3260C94C22620913001C1
:104E2000FC013296222331F08091950587FF02C064
:104E30008EE101C086E0DF011D928A95E9F70895B1
:104E400008950C9420270C942027CF930E942327A9
:104E50000E9410140E942127C0E08C2F0E94AB13E7
:104E6000892B29F4CF5FC530C1F780E001C081E014
:104E7000CF9108950C94AB040E94511F0E949C1A7C
:104E80000E945B110C94AE0482E084BD93E095BD5A
:104E90009AEF97BD80936E0008952FB7F894809194
:104EA000910590919205A0919305B09194052FBF23
:104EB00008952FB7F89460919105709192058091B3
:104EC0009305909194052FBF0895CF92DF92EF92B2
:104ED000FF920F931F932FB7F89440919105509133
:104EE000920560919305709194052FBF6A017B0133
:104EF000EE24FF248C0120E030E0C016D106E2064B
:104F0000F30610F4415051099A01281B390BC901CD
:104F10001F910F91FF90EF90DF90CF9008957894BC
:104F20001F920F920FB60F9211248F939F93AF93FE
:104F3000BF938091910590919205A0919305B091B6
:104F400094050196A11DB11D809391059093920542
:104F5000A0939305B0939405BF91AF919F918F91CA
:104F60000F900FBE0F901F90189581E08093E00086
:104F700080E28093D8001092C9008FE19EE40197EF
:104F8000F1F700C0000087E090EBDC018093A405FE
:104F90009093A505A093A605B093A7059CE088E192
:104FA0000FB6F894A895809360000FBE90936000B0
:104FB000FFCF0E94EB25811102C00E948B260E9428
:104FC000F625809395030E94FE2590939605809385
:104FD00095050E94FA25682F70E080E090E00C941F
:104FE0005E238091B60308950895CF93DF9300D098
:104FF0001F92CDB7DEB790919B05943011F5898350
:105000007B836A839093E9008FEF9091E800815051
:1050100095FD06C095ED9A95F1F700008111F5CF49
:105020008091E80085FF0DC040E050E063E070E053
:10503000CE0101960E94872A8091E8008E778093A6
:10504000E8000F900F900F90DF91CF910895CF93CC
:10505000DF93EC010E946A2A823011F0843031F42F
:10506000BE0184E0DF91CF910C94F527DF91CF91C1
:105070000895BC0183E00C94F527CF93DF93EC01F6
:105080000E946A2A823011F08430D9F58091300173
:10509000882339F08091950587FF03C060E284E0A2
:1050A00002C068E081E08093E9008FEF9091E80012
:1050B000815095FD06C095ED9A95F1F7000081119C
:1050C000F5CF8091E80085FF1CC0809130018111EF
:1050D00005C040E050E068E070E003C070E040E0F0
:1050E00050E0CE010E94872A8091E8008E7780935D
:1050F000E80080E2FE01A6E9B3E001900D928A95F6
:10510000E1F7DF91CF910895CF93603219F52091A7
:105110009B052430F9F4C091E900CF703091EC0088
:10512000232F217030FD20E8C22B22E02093E900DC
:105130002091E80020FF0BC040E050E060E270E00A
:105140000E94872A8091E8008E778093E800CF70D4
:10515000C093E900CF91089580919A05811109C00B
:105160000E94632C0E94C02C8091E2008460809396
:10517000E200089510929A050895089508950C94F8
:105180003C2742E061EC81E00E94DC2B42E261ECD2
:1051900084E00E94DC2B42E261EC82E00E94DC2B86
:1051A00042E260EC83E00C94DC2B80919D0583301F
:1051B00009F462C030F4813071F0823009F49BC090
:1051C00008958A3009F487C08B3009F46DC08930A6
:1051D00009F0A9C020C080919C05813A09F0A3C0C4
:1051E0008091E800877F8093E8008091A0059091EE
:1051F000A105892B21F460E286E993E003C060E019
:1052000080E090E070E00E941D2B8091E8008B7799
:105210008093E800089580919C05813209F083C055
:105220008091A0059091A105009719F0029709F0CF
:105230007AC08091E800877F8093E8008091E80041
:1052400082FD05C080919B058111F8CF6CC0209133
:10525000F3008091F20090E0922B029729F4809164
:10526000F1008B7F813021F48091F1008093B603AF
:105270008091E8008B7753C080919C05813A09F0BA
:1052800052C08091A0059091A105892B09F04BC0D7
:105290008091E800877F8093E8008091E80080FF9C
:1052A000FCCF8091300136C080919C058132D9F5C8
:1052B0008091A0059091A105892BA9F58091E80026
:1052C000877F8093E8000E94112C80919E05809337
:1052D00030010C94511F80919C05813221F5809101
:1052E000E800877F8093E8000E94112C80919F0541
:1052F0008093B703089580919C05813AA1F4809131
:10530000E800877F8093E8008091E80080FFFCCF71
:105310008091B7038093F1008091E8008E778093AD
:10532000E8000C94112C08951F93CF93DF93CDB711
:10533000DEB7A0970FB6F894DEBF0FBECDBF84B71F
:10534000877F84BF0FB6F894A8958091600088612C
:1053500080936000109260000FBE90E080E80FB66E
:10536000F89480936100909361000FBE0E94FE1A32
:105370000E94632C0E94C02C8091E2008460809384
:10538000E20078940E94552F0E94061B86E291E06D
:105390000E94971A13E080919B05853069F40E9462
:1053A0003A27809199058823B1F30E942527882305
:1053B00091F30E94712AEFCF0E94101B80919B05F0
:1053C000843049F71093E9008091E80082FFE3CF31
:1053D0008091E80085FF0AC040E050E060E270E0A4
:1053E000CE0101960E94D22A91E001C090E0809106
:1053F000E8008B778093E800992369F260E2CE01A0
:1054000001960E949015C7CF0C94062A292F3327A6
:1054100023303105C9F060F42130310581F02230AC
:10542000310509F047C08BE590E02EE237E046C039
:105430002132310511F12232310561F13BC082E1A7
:1054400090E029E837E03AC099278130910561F072
:1054500040F08230910559F0039761F5E6E0F7E0FE
:1054600008C0EAE2F7E005C0ECE1F7E002C0ECE0DA
:10547000F7E0849190E09F0121C063307105D0F482
:10548000660F771FFB01E155FD4F2081318189E0D7
:1054900090E014C06330710568F4FB01EE0FFF1F4C
:1054A000E755FD4F20813181FB01EA55FD4F808199
:1054B00090E004C080E090E020E030E0FA01318329
:1054C0002083089580919B05843011F081E0089538
:1054D00082E008958091B803811102C00C94622A81
:1054E000089580E189BD82E189BD09B400FEFDCF48
:1054F0008091D8008F7D8093D8008091E0008260F9
:105500008093E0008091E00081FDFCCF0895CF9270
:10551000DF92EF92FF920F931F93CF93DF93EC01F3
:105520008B017A010E94302C811133C0E114F10407
:1055300039F0F70180819181081B190BC80FD91F21
:10554000C12CD12C0115110519F18091E80085FDC0
:1055500016C08091E8008E778093E800E114F10492
:1055600049F0F70180819181C80ED91ED182C08295
:1055700085E00FC00E94302C882321F30AC0899156
:105580008093F10001501109FFEFCF1ADF0ADACF43
:1055900080E0DF91CF911F910F91FF90EF90DF900E
:1055A000CF900895CF92DF92EF92FF920F931F93C7
:1055B000CF93DF93EC018B017A010E94302C811193
:1055C00033C0E114F10439F0F70180819181081BA7
:1055D000190BC80FD91FC12CD12C0115110519F1B8
:1055E0008091E80085FD16C08091E8008B7780935C
:1055F000E800E114F10449F0F70180819181C80EBF
:10560000D91ED182C08285E00FC00E94302C882331
:1056100021F30AC08091F100899301501109FFEF35
:10562000CF1ADF0ADACF80E0DF91CF911F910F917F
:10563000FF90EF90DF90CF9008952091A2053091D8
:10564000A3052617370748F06115710539F4209135
:10565000E8002E772093E80001C0B901FC0120E0AA
:105660006115710579F180919B058823F1F18530F1
:10567000F1F18091E80083FD3CC08091E80082FD5B
:105680002EC08091E80080FFEBCF2091F300809145
:10569000F20090E0922B6115710551F08830910570
:1056A00038F421912093F100615071090196F3CFF4
:1056B00021E0089709F020E08091E8008E77809340
:1056C000E800CECF2111CFCF0AC080919B0588235F
:1056D00061F0853061F08091E80083FD0AC080911F
:1056E000E80082FFF2CF80E0089582E0089583E031
:1056F000089581E008952091A2053091A305261711
:10570000370748F06115710539F42091E8002E77CC
:105710002093E80001C0B901FC0120E0611571058A
:1057200091F180919B05882309F440C0853009F4EC
:105730003FC08091E80083FD3DC08091E80082FD7C
:105740002FC08091E80080FFE9CF2091F300809185
:10575000F20090E0922B6115710559F088309105A7
:1057600040F424912093F100319661507109019623
:10577000F2CF21E0089709F020E08091E8008E77D1
:105780008093E800CBCF2111CCCF0AC080919B053C
:10579000882361F0853061F08091E80083FD0AC0C4
:1057A0008091E80082FFF2CF80E0089582E00895C2
:1057B00083E0089581E00895982F973068F59093DD
:1057C000E900981739F07091EC002091ED005091AC
:1057D000F00003C0242F762F50E021FD02C09F5F10
:1057E000ECCF3091EB003E7F3093EB003091ED0039
:1057F0003D7F3093ED003091EB0031603093EB0052
:105800007093EC002093ED005093F0002091EE0097
:1058100027FDE5CF80E008958F708093E90081E057
:10582000089580919C0587FF11C08091E80082FD5A
:1058300005C080919B058111F8CF11C08091E800CF
:105840008B770BC080919B05882349F08091E800FD
:1058500080FFF8CF8091E8008E778093E80008956C
:105860002091E4003091E50095E64091EC00842F12
:10587000817040FF23C08091E80080FD1DC08091B1
:105880009B05882399F0853099F08091EB0085FD88
:1058900011C04091E4005091E5002417350729F329
:1058A000915011F09A01E1CF84E0089582E00895CB
:1058B00083E0089581E0089580E008954091E80034
:1058C00042FFDDCF08950E94D12C0E94D92CE0EE3A
:1058D000F0E0808181608083E8EDF0E080818F7767
:1058E000808319BCA7EDB0E08C918E7F8C93808172
:1058F0008F7E808310929A0508950F931F93CF9304
:10590000DF930E94D12C0E94D92CC8EDD0E0888171
:105910008F77888388818068888388818F7D88835A
:1059200019BC10929B051092970510929905109240
:10593000980500EE10E0F80180818B7F80838881DC
:105940008160888342E060E080E00E94DC2BE1EE31
:10595000F0E080818E7F8083E2EEF0E080818160E4
:105960008083808188608083F80180818E7F80833E
:10597000888180618883DF91CF911F910F91089575
:10598000E8EDF0E080818F7E8083E7EDF0E08081BC
:105990008160808384E082BF81E080939A050C94CB
:1059A0007D2CE8EDF0E080818E7F80831092E20014
:1059B00008951092DA001092E10008951F920F925C
:1059C0000FB60F9211242F933F934F935F936F93D2
:1059D0007F938F939F93AF93BF93EF93FF938091A8
:1059E000E10082FF0BC08091E20082FF07C080913E
:1059F000E1008B7F8093E1000E94542F8091DA00B8
:105A000080FF1FC08091D80080FF1BC08091DA000A
:105A10008E7F8093DA008091D90080FF0DC080E1F5
:105A200089BD82E189BD09B400FEFDCF81E080938C
:105A30009B050E94AC2805C019BC10929B050E94D2
:105A4000BA288091E10080FF19C08091E20080FFB8
:105A500015C08091E2008E7F8093E2008091E20089
:105A600080618093E2008091D80080628093D800AA
:105A700019BC85E080939B050E94BE288091E100BF
:105A800084FF30C08091E20084FF2CC080E189BD9A
:105A900082E189BD09B400FEFDCF8091D8008F7DE1
:105AA0008093D8008091E1008F7E8093E100809107
:105AB000E2008F7E8093E2008091E200816080931B
:105AC000E20080919705882311F084E007C080915F
:105AD000E30087FD02C081E001C083E080939B0565
